100000001Bundesbank                                                10591Berlin                             BBk Berlin                 20100MARKDEF110009011380U000000000
100100101Postbank                                                  10916Berlin                             Postbank Berlin            10010PBNKDEFF10024000538U000000000
100101111SEB                                                       10789Berlin                             SEB Berlin                 25805ESSEDE5F10013005361U000000000
100102221ABN AMRO Bank Ndl Deutschland                             10105Berlin                             ABN AMRO Bank Berlin       29190ABNADEFFBER10011142U000000000
100104241Aareal Bank                                               10666Berlin                             Aareal Bank                26910AARBDE5W10009004795U000000000
100200001Berliner Bank                                             10890Berlin                             Berliner Bank              25140BEBEDEBBXXX69013616U000000000
100202001BHF-BANK                                                  10117Berlin                             BHF-BANK Berlin            25155BHFBDEFF10060004794U000000000
100204001Parex Bank Berlin                                         10117Berlin                             Parex Bank Berlin               PARXDEBBXXX09052878U000000000
100205001Sozialbank                                                10178Berlin                             Sozialbank Berlin          25013BFSWDE33BER09000530U000000000
100208901Bayer Hypo- und Vereinsbank                               10896Berlin                             HypoVereinsbank Berlin     22014HYVEDEMM48899039785U000000000
100208902Bayer Hypo- und Vereinsbank                               14532Kleinmachnow                       HypoVereinsbank Kleinmachno22014HYVEDEMM12499049352U000000000
100208902Bayer Hypo- und Vereinsbank                               14776Brandenburg an der Havel           HypoVereinsbank Brandenburg22014HYVEDEMM16199049746U000000000
100208902Bayer Hypo- und Vereinsbank                               15517Fürstenwalde /Spree                HypoVereinsbank Fürstenwald22014HYVEDEMM07099050515U000000000
100208902Bayer Hypo- und Vereinsbank                               15711Königs Wusterhausen                HypoVereinsbank Königs-Wust22014HYVEDEMM10899049747U000000000
100208902Bayer Hypo- und Vereinsbank                               16515Oranienburg                        HypoVereinsbank Oranienburg22014HYVEDEMM16599049745U000000000
100222001Landesbank Berlin - ehemals Bankgesellschaft Berlin       10889Berlin                             Landesbank Berlin          29410BELADEBE22269048367U110050000
100302001Berlin-Hannoversche Hypothekenbank                        10773Berlin                             Berlin Hyp                 26706BHYPDEB1XXX09037413U000000000
100304001ABK-Kreditbank                                            10789Berlin                             ABK-Kreditbank Berlin      25686ABKBDEB1XXX09044427U000000000
100305001Bankhaus Löbbecke                                         10117Berlin                             Bankhaus Löbbecke Berlin   26225LOEBDEBBXXX09043961U000000000
100306001Bankhaus Kruber                                           13469Berlin                             Bankhaus Kruber Berlin     26205GENODEF1OGK88000532U000000000
100307001Gries & Heissel - Bankiers                                65189Wiesbaden                          Gries & Heissel Wiesbaden  26535DLGHDEB1XXX16044339U000000000
100400001Commerzbank Berlin (West)                                 10891Berlin                             Commerzbank -West- Berlin  24100COBADEBBXXX13024463U000000000
100400601Commerzbank Gf 160                                        10891Berlin                             Commerzbank Gf 160 Berlin  24101COBADEFF06009052880U000000000
100400611Commerzbank Gf 161                                        10891Berlin                             Commerzbank Gf 161 Berlin  24102COBADEFF06109052894U000000000
100450501Commerzbank Service-BZ                                    10785Berlin                             Commerzbank Service-BZ          COBADEFFBZB13050927U000000000
100500001Landesbank Berlin - Berliner Sparkasse                    10889Berlin                             Landesbank - Berliner Spk  51000BELADEBEXXXB8002745U000000000
100500011Landesbank Berlin                                         10889Berlin                             Landesbank Berlin          51001BELADEBE00120046768U000000000
100500051Landesbank Berlin - E 1 -                                 10889Berlin                             Landesbank Berlin - E 1 -  51005BELADEB1DB510047222U000000000
100500061Landesbank Berlin - E 2 -                                 10889Berlin                             Landesbank Berlin - E 2 -  51006BELADEB1DB609047223U000000000
100505001LBS Ost Berlin                                            10405Berlin                             LBS Ost Berlin                  LBSODEB1BLN09046141U000000000
100506001WestLB Berlin                                             10117Berlin                             WestLB Berlin              51099WELADEBBXXX08049322U000000000
100509991DekaBank Berlin                                           10249Berlin                             DekaBank Berlin                 DGZFDEFFBER09004788U000000000
100601981Pax-Bank                                                  14005Berlin                             Pax-Bank Berlin                 GENODED1PA606047622U000000000
100602371Evangelische Darlehnsgenossenschaft                       10503Berlin                             Ev Darlehnsgenossensch Bln      GENODEF1EDB33046278U000000000
100700001Deutsche Bank Fil Berlin                                  10883Berlin                             Deutsche Bank Fil Berlin   27700DEUTDEBBXXX63004787U000000000
100700241Deutsche Bank Privat und Geschäftskunden F 700            10883Berlin                             Deutsche Bank PGK Berlin   21700DEUTDEDBBER63049758U000000000
100701001Deutsche Bank Fil Berlin II                               10883Berlin                             Deutsche Bank Fil Berlin II27701DEUTDEBB10163053102U000000000
100701241Deutsche Bank Privat und Geschäftskd Berlin II            10883Berlin                             Deutsche Bank PGK Berlin II21701DEUTDEDB10163053103U000000000
100800001Dresdner Bank                                             10877Berlin                             Dresdner Bank Berlin       28100DRESDEBBXXX76024465U000000000
100800051Dresdner Bank Zw A                                        10623Berlin                             Dresdner Bank Berlin Zw A       DRESDEFFI2676046513U000000000
100800061Dresdner Bank Zw B                                        10623Berlin                             Dresdner Bank Berlin Zw B       DRESDEF1S0276046514U000000000
100800881Dresdner Bank IBLZ                                        10623Berlin                             Dresdner Bank IBLZ Berlin       DRESDEF1S0376044595U000000000
100800901Dresdner Bank Gf Berlin                                   10877Berlin                             Dresdner Bank Gf Berlin    28102DRESDEFFBB276052007U000000000
100809001Dresdner Bank ehem. Otto Scheurmann                       10877Berlin                             Dresdner Bank Berlin OS    28109DRESDEF1OSB76000534U000000000
100892601Dresdner Bank ITGK                                        10877Berlin                             Dresdner Bank ITGK Berlin       DRESDEFFI1409050474U000000000
100899991Dresdner Bank ITGK 2                                      10117Berlin                             Dresdner Bank ITGK 2 Berlin     DRESDEFFI9909052938U000000000
100900001Berliner Volksbank                                        10892Berlin                             Berliner VB Berlin         91001BEVODEBBXXX06023299U000000000
100900002Berliner Volksbank                                        15366Neuenhagen b Berlin                Berliner VB Neuenhagen     91001           06053326U000000000
100900002Berliner Volksbank                                        16548Glienicke /Nordbahn                Berliner VB Glienicke      91001           06053327U000000000
100900002Volksbank Potsdam Zndl d Berliner Volksbank               14467Potsdam                            Volksbank Potsdam          91001           06044983U000000000
100900002Berliner Volksbank                                        14542Werder (Havel)                     Berliner VB Werder         91001           06047007U000000000
100900002Berliner Volksbank                                        14547Beelitz, Mark                      Berliner Volksbank Beelitz 91001           06045734U000000000
100900002Berliner Volksbank (eh Grundkreditbank)                   14513Teltow                             Berliner VB Teltow         91001           06050571U000000000
100900002Berliner Volksbank                                        14929Treuenbrietzen                     Berliner VB Treuenbrietzen 91001           06046045U000000000
100900002Berliner Volksbank                                        14558Nuthetal                           Berliner Volksbank Saarmund91001           06047443U000000000
100900002Berliner Volksbank                                        14612Falkensee                          Berliner VB Falkensee      91001           06044918U000000000
100900002Berliner Volksbank                                        14641Nauen, Havelland                   Berliner VB Nauen          91001           06046770U000000000
100900002Berliner Volksbank                                        16515Oranienburg                        Berliner VB Oranienburg    91001           06044974U000000000
100900002Berliner Volksbank                                        16540Hohen Neuendorf                    Berliner VB Hohen Neuendorf91001           06047004U000000000
100900002Berliner Volksbank                                        16559Liebenwalde                        Berliner VB Liebenwalde    91001           06049697U000000000
100900002Berliner Volksbank Fil Velten                             16727Velten                             Berliner VB Velten         91001           06047216U000000000
100900002Berliner Volksbank                                        16727Oberkrämer                         Berliner VB Oberkrämer     91001           06049698U000000000
100900002Berliner Volksbank                                        16761Hennigsdorf                        Berliner VB Hennigsdorf    91001           06048909U000000000
100900002Berliner Volksbank                                        16321Bernau bei Berlin                  Berliner VB Bernau         91001           06046058U000000000
100900002Berliner Volksbank                                        16348Wandlitz                           Berliner Volksbank         91001           06048384U000000000
100900002Berliner Volksbank                                        15757Halbe                              Berliner VB Halbe          91001           06046047U000000000
100900002Berliner Volksbank                                        16225Eberswalde                         Berliner VB Eberswalde     91001           06051684U000000000
100900002Berliner Volksbank                                        16244Schorfheide                        Berliner VB Schorfheide    91001           06049435U000000000
100900002Berliner Volksbank                                        16247Joachimsthal                       Berliner VB Joachimsthal   91001           06049434U000000000
100900002Berliner Volksbank                                        16248Hohensaaten                        Berliner VB Hohensaaten    91001           06044914U000000000
100900002Berliner Volksbank                                        15711Königs Wusterhausen                Berliner VB Königs Wusterhs91001           06044951U000000000
100900002Berliner Volksbank                                        15732Eichwalde                          Berliner Volksbank         91001           06048382U000000000
100900002Berliner Volksbank                                        15562Rüdersdorf b Berlin                Berliner Volksbank         91001           06048383U000000000
100900002Berliner Volksbank                                        14979Großbeeren                         Berliner VB Großbeeren     91001           06044952U000000000
100900002Berliner Volksbank                                        15344Strausberg                         Berliner VB Strausberg     91001           06045010U000000000
100900002Berliner Volksbank                                        16766Kremmen                            Berliner VB Kremmen        91001           06047003U000000000
100900002Berliner Volksbank                                        16775Gransee                            Berliner VB Gransee        91001           06047021U000000000
100900002Berliner Volksbank                                        16775Löwenberger Land                   Berliner VB Löwenberg      91001           06049392U000000000
100900002Berliner Volksbank                                        16792Zehdenick                          Berliner VB Zehdenick      91001           06045019U000000000
100900002Berliner Volksbank                                        16798Fürstenberg /Havel                 Berliner VB Fürstenberg    91001           06049394U000000000
100900002Berliner Volksbank                                        16816Neuruppin                          Berliner VB Neuruppin      91001           06044970U000000000
100900002Berliner Volksbank Fil Rheinsberg                         16831Rheinsberg                         Berliner VB Rheinsberg     91001           06046040U000000000
100900002Berliner Volksbank                                        16835Lindow (Mark)                      Berliner VB Lindow         91001           06049393U000000000
100900002Berliner Volksbank                                        16866Kyritz, Prignitz                   Berliner VB Kyritz         91001           06047009U000000000
100900002Berliner Volksbank                                        16909Wittstock, Dosse                   Berliner VB Wittstock      91001           06047010U000000000
100903001Bank für Schiffahrt (BFS) Fil d Ostfr VB Leer             13353Berlin                             Bk f Schiffahrt BFS Berlin      GENODEF1BSB09021629U000000000
100906031apoBank                                                   10593Berlin                             apoBank Berlin             91006DAAEDED100314030360U000000000
100906032apoBank                                                   14467Potsdam                            apoBank Potsdam            91006DAAEDED104814046556U000000000
100906032apoBank                                                   18057Rostock                            apoBank Rostock            91006           14046557U000000000
100906032apoBank                                                   19061Schwerin, Meckl                    apoBank Schwerin           91006DAAEDED104214046110U000000000
100906032apoBank                                                   01099Dresden                            apoBank Dresden            91006DAAEDED104314046126U000000000
100906032apoBank                                                   04129Leipzig                            apoBank Leipzig            91006DAAEDED104114046410U000000000
100906032apoBank                                                   09111Chemnitz, Sachs                    apoBank Chemnitz           91006DAAEDED104914046553U000000000
100906032apoBank                                                   39104Magdeburg                          apoBank Magdeburg          91006DAAEDED104614046555U000000000
100906032apoBank                                                   99084Erfurt                             apoBank Erfurt             91006DAAEDED104514046554U000000000
100909001PSD Bank Berlin-Brandenburg                               12154Berlin                             PSD Bank Berlin            91008GENODEF1P0191024464U000000000
101103001Masel, Dr. - & Co.                                        14004Berlin                             Maselbank Berlin           26240MACODEB1XXX09000536U000000000
101104001Investitionsbank Berlin                                   10702Berlin                             Investitionsbank Berlin         IBBBDEBBXXX09000537U000000000
101106001Berliner Effektenbank Zndl der quirin bank                10711Berlin                             Berliner Effekten-quirin bk25207BEFFDEB1XXX17049702U000000000
101201001Weberbank                                                 10893Berlin                             Weberbank                  26395WEBEDEBBXXX94013621U000000000
101206001Ge Money Bank                                             60313Frankfurt am Main                  Ge Money Bank              25007GEMKDE21BER41044605U000000000
101207601Bayer Hypo- und Vereinsbank Ndl 260 Bln                   85609Aschheim                           Hypovereinsbk Ndl 260 Bln       HYVEDEM107999032462U110020890
101208001VON ESSEN Bankgesellschaft                                10719Berlin                             VON ESSEN Bankges Berlin   26037VONEDE31BLN09044118U000000000
101209001readybank                                                 10117Berlin                             readybank                  98086GENODEF1ABC09040976U000000000
101209002readybank                                                 60313Frankfurt am Main                  readybank                  98086           09049126U000000000
101209991readybank Gf GAA                                          10117Berlin                             readybank Gf GAA Berlin    98086REDYDEB1XXX09053260U000000000
101306001Isbank Fil Berlin                                         13303Berlin                             Isbank Berlin              29835ISBKDEFXBER06043850U000000000
101308001BIW Bank                                                  47877Willich                            BIW Bank                        BIWBDE31XXX01050620U000000000
102207001Hanseatic Bank                                            10717Berlin                             Hanseatic Bank Berlin           HSTBDEH1BE416046914U000000000
103208001Emporiki Bank - Germany                                   10623Berlin                             Emporiki Bank Berlin       25256EMPODEF1BRL56048908U000000000
120168361KfW Kreditanstalt für Wiederaufbau                        10117Berlin                             KfW Berlin                      KFWIDEFF10009045444U000000000
120203001BkmU Bank                                                 10122Berlin                             BkmU Berlin                     BKMUDEB1XXX06049236U000000000
120300001Deutsche Kreditbank Berlin                                10117Berlin                             Deutsche Kreditbank Berlin 25690BYLADEM100100046023U000000000
120300002Deutsche Kreditbank                                       14471Potsdam                            Deutsche Kreditbank Potsdam25690           00049253U000000000
120300002Deutsche Kreditbank                                       17034Neubrandenburg, Meckl              Deutsche Kreditbk Neubrandb25690           00049254U000000000
120300002Deutsche Kreditbank                                       15230Frankfurt (Oder)                   Deutsche Kreditbank Ff/Oder25690           00049252U000000000
120300002Deutsche Kreditbank                                       18057Rostock                            Deutsche Kreditbank Rostock25690           00049256U000000000
120300002Deutsche Kreditbank                                       19057Schwerin, Meckl                    Deutsche Kreditbk Schwerin 25690           00049255U000000000
120300002Deutsche Kreditbank                                       09111Chemnitz, Sachs                    Deutsche Kreditbk Chemnitz 25690           00049243U000000000
120300002Deutsche Kreditbank                                       07545Gera                               Deutsche Kreditbank Gera   25690           00049247U000000000
120300002Deutsche Kreditbank                                       04109Leipzig                            Deutsche Kreditbank Leipzig25690           00049244U000000000
120300002Deutsche Kreditbank                                       03046Cottbus                            Deutsche Kreditbank Cottbus25690           00049251U000000000
120300002Deutsche Kreditbank                                       06122Halle (Saale)                      Deutsche Kreditbank Halle  25690           00049249U000000000
120300002Deutsche Kreditbank                                       01069Dresden                            Deutsche Kreditbank Dresden25690           00049245U000000000
120300002Deutsche Kreditbank                                       39104Magdeburg                          Deutsche Kreditbk Magdeburg25690           00049250U000000000
120300002Deutsche Kreditbank                                       99084Erfurt                             Deutsche Kreditbank Erfurt 25690           00049248U000000000
120300002Deutsche Kreditbank                                       98527Suhl                               Deutsche Kreditbank Suhl   25690           00049246U000000000
120307001Hanseatic Bank Berlin-Mitte                               10115Berlin                             Hanseatic Bank Berlin-Mitte     HSTBDEH1BE716048171D000000000
120309001Merck Finck & Co                                          10109Berlin                             Merck Finck & Co Berlin    26249MEFIDEMM10010047484U000000000
120400001Commerzbank Berlin Ost                                    10891Berlin                             Commerzbank -Ost- Berlin   24120COBADEBB12013044795U000000000
120505551NLB FinanzIT                                              10836Berlin                             NLB FinanzIT                    NOLADE21DVS09047224U000000000
120600001DZ BANK                                                   10001Berlin                             DZ BANK                         GENODEFF12009044802U000000000
120700001Deutsche Bank Ld Brandenburg                              14405Potsdam                            Deutsche Bank Ld Brandenbg 27704DEUTDEBB16063044796U000000000
120700002Deutsche Bank                                             10883Berlin                             Deutsche Bank Ld Brandenbg 27704           63046160U000000000
120700002Deutsche Bank                                             14513Teltow                             Deutsche Bank Teltow       27704DEUTDEBB12763048463U000000000
120700002Deutsche Bank                                             14612Falkensee                          Deutsche Bank Falkensee    27704DEUTDEBB16263048455U000000000
120700002Deutsche Bank                                             14542Werder (Havel)                     Deutsche Bank Werder Havel 27704DEUTDEBB16863048464U000000000
120700002Deutsche Bank                                             14641Nauen, Havelland                   Deutsche Bank Nauen        27704DEUTDEBB16563048515U000000000
120700002Deutsche Bank                                             14712Rathenow                           Deutsche Bank Rathenow     27704DEUTDEBB16763046162U000000000
120700002Deutsche Bank                                             14943Luckenwalde                        Deutsche Bank Luckenwalde  27704DEUTDEBB18863048458U000000000
120700002Deutsche Bank                                             14902Jüterbog                           Deutsche Bank Jüterbog     27704DEUTDEBB18763046155U000000000
120700002Deutsche Bank                                             14776Brandenburg an der Havel           Deutsche Bank Brandenburg  27704DEUTDEBB16163046148U000000000
120700002Deutsche Bank                                             15203Frankfurt (Oder)                   Deutsche Bank Frankfurt Od 27704DEUTDEBB17063046153U000000000
120700002Deutsche Bank                                             14974Ludwigsfelde                       Deutsche Bank Ludwigsfelde 27704DEUTDEBB16463048459U000000000
120700002Deutsche Bank                                             15344Strausberg                         Deutsche Bank Strausberg   27704DEUTDEBB17863048462U000000000
120700002Deutsche Bank                                             15501Fürstenwalde /Spree                Deutsche Bank Fürstenwalde 27704DEUTDEBB17563046154U000000000
120700002Deutsche Bank                                             15301Seelow                             Deutsche Bank Seelow       27704DEUTDEBB17763046164U000000000
120700002Deutsche Bank                                             15701Königs Wusterhausen                Deutsche Bank Königs Wuster27704DEUTDEBB12163046156U000000000
120700002Deutsche Bank                                             16252Bad Freienwalde (Oder)             Deutsche Bank Bad Freienwde27704DEUTDEBB17263046146U000000000
120700002Deutsche Bank                                             16225Eberswalde                         Deutsche Bank Eberswalde   27704DEUTDEBB17363046150U000000000
120700002Deutsche Bank                                             15907Lübben (Spreewald)                 Deutsche Bank Lübben       27704DEUTDEBB18463048460U000000000
120700002Deutsche Bank                                             15801Zossen b Berlin                    Deutsche Bank Zossen       27704DEUTDEBB12463046170U000000000
120700002Deutsche Bank                                             15873Eisenhüttenstadt                   Deutsche Bank Eisenhüttenst27704DEUTDEBB17463046151U000000000
120700002Deutsche Bank                                             16502Oranienburg                        Deutsche Bank Oranienburg  27704DEUTDEBB12063046159U000000000
120700002Deutsche Bank                                             16311Bernau bei Berlin                  Deutsche Bank Bernau       27704DEUTDEBB12263046147U000000000
120700002Deutsche Bank                                             16278Angermünde                         Deutsche Bank Angermünde   27704DEUTDEBB17163048454U000000000
120700002Deutsche Bank                                             16285Schwedt /Oder                      Deutsche Bank Schwedt      27704DEUTDEBB17663046163U000000000
120700002Deutsche Bank                                             16761Hennigsdorf                        Deutsche Bank Hennigsdorf  27704DEUTDEBB12563048457U000000000
120700002Deutsche Bank                                             16921Pritzwalk                          Deutsche Bank Pritzwalk    27704DEUTDEBB16663046161U000000000
120700002Deutsche Bank                                             16901Wittstock, Dosse                   Deutsche Bank Wittstock    27704DEUTDEBB16963046169U000000000
120700002Deutsche Bank                                             16856Kyritz, Prignitz                   Deutsche Bank Kyritz       27704DEUTDEBB16363046157U000000000
120700002Deutsche Bank                                             16801Neuruppin                          Deutsche Bank Neuruppin    27704DEUTDEBB12363046158U000000000
120700002Deutsche Bank                                             01968Senftenberg, NL                    Deutsche Bank Senftenberg  27704DEUTDEBB18563046165U000000000
120700002Deutsche Bank                                             01987Schwarzheide                       Deutsche Bank Schwarzheide 27704DEUTDEBB12663048461U000000000
120700002Deutsche Bank                                             03122Spremberg, NL                      Deutsche Bank Spremberg    27704DEUTDEBB18663046166U000000000
120700002Deutsche Bank                                             03046Cottbus                            Deutsche Bank Cottbus      27704DEUTDEBB18063046149U000000000
120700002Deutsche Bank                                             02931Weißwasser /O.L.                   Deutsche Bank Weißwasser   27704DEUTDEBB18963046167U000000000
120700002Deutsche Bank                                             03149Forst (Lausitz)                    Deutsche Bank Forst        27704DEUTDEBB18163048456U000000000
120700002Deutsche Bank                                             03161Guben                              Deutsche Bank Guben        27704DEUTDEBB18363046168U000000000
120700002Deutsche Bank                                             03232Finsterwalde                       Deutsche Bank Finsterwalde 27704DEUTDEBB18263046152U000000000
120700242Deutsche Bank Privat und Geschäftskunden                  03232Finsterwalde                       Deutsche Bank PGK Finsterwa21704DEUTDEDB18263049768U000000000
120700242Deutsche Bank Privat und Geschäftskunden                  03161Guben                              Deutsche Bank PGK Guben    21704DEUTDEDB18363049772U000000000
120700242Deutsche Bank Privat und Geschäftskunden                  03046Cottbus                            Deutsche Bank PGK Cottbus  21704DEUTDEDB18063049764U000000000
120700242Deutsche Bank Privat und Geschäftskunden                  03149Forst (Lausitz)                    Deutsche Bank PGK Forst    21704DEUTDEDB18163049769U000000000
120700242Deutsche Bank Privat und Geschäftskunden                  02931Weißwasser /O.L.                   Deutsche Bank PGK Weißwass 21704DEUTDEDB18963049793U000000000
120700242Deutsche Bank Privat und Geschäftskunden                  03122Spremberg, NL                      Deutsche Bank PGK Spremberg21704DEUTDEDB18663049790U000000000
120700242Deutsche Bank Privat und Geschäftskunden                  01968Senftenberg, NL                    Deutsche Bank PGK Senftenbe21704DEUTDEDB18563049789U000000000
120700242Deutsche Bank Privat und Geschäftskunden                  01987Schwarzheide                       Deutsche Bank PGK Schwarzhe21704DEUTDEDB12663049786U000000000
120700242Deutsche Bank Privat und Geschäftskunden                  16801Neuruppin                          Deutsche Bank PGK Neuruppin21704DEUTDEDB12363049781U000000000
120700242Deutsche Bank Privat und Geschäftskunden                  16761Hennigsdorf                        Deutsche Bank PGK Hennigsdo21704DEUTDEDB12563049773U000000000
120700242Deutsche Bank Privat und Geschäftskunden                  16856Kyritz, Prignitz                   Deutsche Bank PGK Kyritz   21704DEUTDEDB16363049776U000000000
120700242Deutsche Bank Privat und Geschäftskunden                  16901Wittstock, Dosse                   Deutsche Bank PGK Wittstock21704DEUTDEDB16963049795U000000000
120700242Deutsche Bank Privat und Geschäftskunden                  16921Pritzwalk                          Deutsche Bank PGK Pritzwalk21704DEUTDEDB16663049784U000000000
120700242Deutsche Bank Privat und Geschäftskunden                  16285Schwedt /Oder                      Deutsche Bank PGK Schwedt  21704DEUTDEDB17663049787U000000000
120700242Deutsche Bank Privat und Geschäftskunden                  16278Angermünde                         Deutsche Bank PGK Angermün 21704DEUTDEDB17163049759U000000000
120700242Deutsche Bank Privat und Geschäftskunden                  16311Bernau bei Berlin                  Deutsche Bank PGK Bernau   21704DEUTDEDB12263049762U000000000
120700242Deutsche Bank Privat und Geschäftskunden                  16502Oranienburg                        Deutsche Bank PGK Oranienbg21704DEUTDEDB12063049782U000000000
120700242Deutsche Bank Privat und Geschäftskunden                  15907Lübben (Spreewald)                 Deutsche Bank PGK Lübben   21704DEUTDEDB18463049779U000000000
120700242Deutsche Bank Privat und Geschäftskunden                  15873Eisenhüttenstadt                   Deutsche Bank PGK Eisenhütt21704DEUTDEDB17463049766U000000000
120700242Deutsche Bank Privat und Geschäftskunden                  16225Eberswalde                         Deutsche Bank PGK Eberswald21704DEUTDEDB17363049765U000000000
120700242Deutsche Bank Privat und Geschäftskunden                  16252Bad Freienwalde (Oder)             Deutsche Bank PGK Bad Freie21704DEUTDEDB17263049760U000000000
120700242Deutsche Bank Privat und Geschäftskunden                  15701Königs Wusterhausen                Deutsche Bank PGK Königs-Wu21704DEUTDEDB12163049775U000000000
120700242Deutsche Bank Privat und Geschäftskunden                  15801Zossen b Berlin                    Deutsche Bank PGK Zossen   21704DEUTDEDB12463049796U000000000
120700242Deutsche Bank Privat und Geschäftskunden                  15301Seelow                             Deutsche Bank PGK Seelow   21704DEUTDEDB17763049788U000000000
120700242Deutsche Bank Privat und Geschäftskunden                  15501Fürstenwalde /Spree                Deutsche Bank PGK Fürstenw 21704DEUTDEDB17563049771U000000000
120700242Deutsche Bank Privat und Geschäftskunden                  15344Strausberg                         Deutsche Bank PGK Strausber21704DEUTDEDB17863049791U000000000
120700242Deutsche Bank Privat und Geschäftskunden                  14974Ludwigsfelde                       Deutsche Bank PGK Ludwigsfe21704DEUTDEDB16463049778U000000000
120700242Deutsche Bank Privat und Geschäftskunden                  15203Frankfurt (Oder)                   Deutsche Bank PGK Frankfurt21704DEUTDEDB17063049770U000000000
120700242Deutsche Bank Privat und Geschäftskunden F 704            14776Brandenburg an der Havel           Deutsche Bank PGK Brandenbu21704DEUTDEDB16163049763U000000000
120700242Deutsche Bank Privat und Geschäftskunden                  14943Luckenwalde                        Deutsche Bank PGK Luckenwal21704DEUTDEDB18863049777U000000000
120700242Deutsche Bank Privat und Geschäftskunden                  14902Jüterbog                           Deutsche Bank PGK Jüterbog 21704DEUTDEDB18763049774U000000000
120700242Deutsche Bank Privat und Geschäftskunden                  14712Rathenow                           Deutsche Bank PGK Rathenow 21704DEUTDEDB16763049785U000000000
120700242Deutsche Bank Privat und Geschäftskunden                  14612Falkensee                          Deutsche Bank PGK Falkensee21704DEUTDEDB16263049767U000000000
120700242Deutsche Bank Privat und Geschäftskunden                  14641Nauen, Havelland                   Deutsche Bank PGK Nauen    21704DEUTDEDB16563049780U000000000
120700242Deutsche Bank Privat und Geschäftskunden                  14513Teltow                             Deutsche Bank PGK Teltow   21704DEUTDEDB12763049792U000000000
120700242Deutsche Bank Privat und Geschäftskunden                  14542Werder (Havel)                     Deutsche Bank PGK Werder   21704DEUTDEDB16863049794U000000000
120700242Deutsche Bank Privat und Geschäftskunden                  10883Berlin                             Deutsche Bank PGK Brandenbg21704           63049783U000000000
120700241Deutsche Bank Privat und Geschäftskunden                  14405Potsdam                            Deutsche Bank PGK Brandenbg21704DEUTDEDB16063049761U000000000
120800001Dresdner Bank                                             10623Berlin                             Dresdner Bank Berlin-Mitte 28120DRESDEF1BRL76044797U000000000
120906401apoBank                                                   10625Berlin                             apoBank -ZV-Ost- Berlin    91050DAAEDED104014046143U000000000
120965971Sparda-Bank Berlin                                        10407Berlin                             Sparda-Bank Berlin         91055GENODEF1S10A8045032U000000000
120965972Sparda-Bank Berlin                                        14473Potsdam                            Sparda-Bank Berlin         91055           A8049503U000000000
120965972Sparda-Bank Berlin                                        14774Brandenburg an der Havel           Sparda-Bank Berlin         91055           A8049487U000000000
120965972Sparda-Bank Berlin                                        15230Frankfurt (Oder)                   Sparda-Bank Berlin         91055           A8049493U000000000
120965972Sparda-Bank Berlin                                        17033Neubrandenburg, Meckl              Sparda-Bank Berlin         91055           A8050526U000000000
120965972Sparda-Bank Berlin                                        19053Schwerin, Meckl                    Sparda-Bank Berlin         91055           A8045031U000000000
120965972Sparda-Bank Berlin                                        18437Stralsund                          Sparda-Bank Berlin         91055           A8049508U000000000
120965972Sparda-Bank Berlin                                        18528Bergen auf Rügen                   Sparda-Bank Berlin         91055           A8049485U000000000
120965972Sparda-Bank Berlin                                        18273Güstrow                            Sparda-Bank Berlin         91055           A8049497U000000000
120965972Sparda-Bank Berlin                                        17489Greifswald, Hansestadt             Sparda-Bank Berlin         91055           A8045028U000000000
120965972Sparda-Bank Berlin                                        18055Rostock                            Sparda-Bank Berlin         91055           A8049505U000000000
120965972Sparda-Bank Berlin                                        19322Wittenberge, Prignitz              Sparda-Bank Berlin         91055           A8049511U000000000
120965972Sparda-Bank Berlin                                        02625Bautzen, Sachs                     Sparda-Bank Berlin         91055           A8049484U000000000
120965972Sparda-Bank Berlin                                        02826Görlitz, Neiße                     Sparda-Bank Berlin         91055           A8049495U000000000
120965972Sparda-Bank Berlin                                        01099Dresden                            Sparda-Bank Berlin         91055           A8045026U000000000
120965972Sparda-Bank Berlin                                        01587Riesa                              Sparda-Bank Berlin         91055           A8049504U000000000
120965972Sparda-Bank Berlin                                        01796Pirna                              Sparda-Bank Berlin         91055           A8049502U000000000
120965972Sparda-Bank Berlin                                        03046Cottbus                            Sparda-Bank Berlin         91055           A8045025U000000000
120965972Sparda-Bank Berlin                                        04001Leipzig                            Sparda-Bank Berlin         91055           A8048390U000000000
120965972Sparda-Bank Berlin                                        04509Delitzsch                          Sparda-Bank Berlin         91055           A8049489U000000000
120965972Sparda-Bank Berlin                                        06112Halle (Saale)                      Sparda-Bank Berlin         91055           A8045029U000000000
120965972Sparda-Bank Berlin                                        04895Falkenberg, Elster                 Sparda-Bank Berlin         91055           A8049492U000000000
120965972Sparda-Bank Berlin                                        07545Gera                               Sparda-Bank Berlin         91055           A8049494U000000000
120965972Sparda-Bank Berlin                                        06406Bernburg (Saale)                   Sparda-Bank Berlin         91055           A8049486U000000000
120965972Sparda-Bank Berlin                                        06449Aschersleben, Sachs-Anh            Sparda-Bank Berlin         91055           A8049483U000000000
120965972Sparda-Bank Berlin                                        06667Weißenfels, Saale                  Sparda-Bank Berlin         91055           A8049510U000000000
120965972Sparda-Bank Berlin                                        06849Dessau, Anh                        Sparda-Bank Berlin         91055           A8049490U000000000
120965972Sparda-Bank Berlin                                        06886Lutherstadt Wittenberg             Sparda-Bank Berlin         91055           A8049499U000000000
120965972Sparda-Bank Berlin                                        07318Saalfeld /Saale                    Sparda-Bank Berlin         91055           A8049506U000000000
120965972Sparda-Bank Berlin                                        09111Chemnitz, Sachs                    Sparda-Bank Berlin         91055           A8049488U000000000
120965972Sparda-Bank Berlin                                        08056Zwickau                            Sparda-Bank Berlin         91055           A8049512U000000000
120965972Sparda-Bank Berlin                                        23966Wismar, Meckl                      Sparda-Bank Berlin         91055           A8050525U000000000
120965972Sparda-Bank Berlin                                        39104Magdeburg                          Sparda-Bank Berlin         91055           A8045030U000000000
120965972Sparda-Bank Berlin                                        38820Halberstadt                        Sparda-Bank Berlin         91055           A8049498U000000000
120965972Sparda-Bank Berlin                                        39576Stendal                            Sparda-Bank Berlin         91055           A8049507U000000000
120965972Sparda-Bank Berlin                                        98617Meiningen                          Sparda-Bank Berlin         91055           A8049500U000000000
120965972Sparda-Bank Berlin                                        99002Erfurt                             Sparda-Bank Berlin         91055           A8045027U000000000
120965972Sparda-Bank Berlin                                        99423Weimar, Thür                       Sparda-Bank Berlin         91055           A8049509U000000000
120965972Sparda-Bank Berlin                                        99724Nordhausen, Thür                   Sparda-Bank Berlin         91055           A8049501U000000000
120965972Sparda-Bank Berlin                                        99817Eisenach, Thür                     Sparda-Bank Berlin         91055           A8049491U000000000
120965972Sparda-Bank Berlin                                        99867Gotha, Thür                        Sparda-Bank Berlin         91055           A8049496U000000000
130000001Bundesbank                                                18003Rostock                            BBk Rostock                20130MARKDEF113009044864U000000000
130101111SEB                                                       18055Rostock                            SEB Rostock                25921ESSEDE5F13013044886U000000000
130101112SEB                                                       19055Schwerin, Meckl                    SEB Schwerin               25921ESSEDE5113113046595U000000000
130101112SEB                                                       23966Wismar, Meckl                      SEB Wismar                 25921ESSEDE5113213047497U000000000
130207801Bayer Hypo- und Vereinsbank(ehem. Hypo)                   18010Rostock                            Hypover Bk-Hypo-Rostock         HYVEDEM119399045915U100000000
130208001Hanseatic Bank                                            18057Rostock                            Hanseatic Bank Rostock          HSTBDEH1ROS16048801U000000000
130400001Commerzbank                                               18006Rostock                            Commerzbank Rostock        24130COBADEFF13013044861U000000000
130400002Commerzbank                                               18184Roggentin b Rostock                Commerzbank Roggentin      24130           13049525U000000000
130400002Commerzbank                                               23951Wismar, Meckl                      Commerzbank Wismar         24130COBADEFF13113046018U000000000
130500002Ostseesparkasse Rostock                                   18201Bad Doberan                        Ostseesparkasse Rostock    51399           20045789U000000000
130500002Ostseesparkasse Rostock                                   18242Bützow                             Ostseesparkasse Rostock    51399           20045254U000000000
130500002Ostseesparkasse Rostock                                   18262Güstrow                            Ostseesparkasse Rostock    51399           20045255U000000000
130500002Ostseesparkasse Rostock                                   17161Teterow                            Ostseesparkasse Rostock    51399           20045264U000000000
130500001Ostseesparkasse Rostock                                   18004Rostock                            Ostseesparkasse Rostock    51399NOLADE21ROS20048659U000000000
130510421Kreissparkasse Rügen, Sitz Bergen                         18525Bergen auf Rügen                   Kreissparkasse Rügen       51303NOLADE21RUEC0045242M000000000
130510521Sparkasse Hansestadt Stralsund                            18412Stralsund                          Sparkasse Stralsund        51304NOLADE21STR52045241U000000000
130610081Volksbank Wolgast                                         17438Wolgast                            Volksbank Wolgast          61260GENODEF1WOG32045675U000000000
130610281Volksbank Raiffeisenbank ehem VB Greifswald               17462Greifswald, Hansestadt             Volksbank Raiffeisenbank   61279GENODEF1GW132045676U000000000
130610781Volks- und Raiffeisenbank                                 23952Wismar, Meckl                      VB u Raiffbk               61286GENODEF1HWI32045680U000000000
130610782Volks- und Raiffeisenbank                                 18225Kühlungsborn, Ostseebad            VB u Raiffbk               61286           32045017U000000000
130610782Volks- und Raiffeisenbank                                 18233Neubukow                           VB u Raiffbk               61286           32046636U000000000
130610782Volks- und Raiffeisenbank                                 19205Gadebusch                          VB u Raiffbk               61286           32052785U000000000
130610782Volks- und Raiffeisenbank                                 19209Lützow                             VB u Raiffbk               61286           32053064U000000000
130610782Volks- und Raiffeisenbank                                 19217Rehna                              VB u Raiffbk               61286           32053065U000000000
130610782Volks- und Raiffeisenbank                                 23948Klütz                              VB u Raiffbk               61286           32046632U000000000
130610782Volks- und Raiffeisenbank                                 23942Dassow                             VB u Raiffbk               61286           32046576U000000000
130610782Volks- und Raiffeisenbank                                 23946Ostseebad Boltenhagen              VB u Raiffbk               61286           32046575U000000000
130610782Volks- und Raiffeisenbank                                 23974Neuburg, NWM                       VB u Raiffbk               61286           32050956U000000000
130610782Volks- und Raiffeisenbank                                 23996Bobitz                             VB u Raiffbk               61286           32050955U000000000
130610782Volks- und Raiffeisenbank                                 23999Insel Poel                         VB u Raiffbk               61286           32051126U000000000
130610782Volks- und Raiffeisenbank                                 23992Neukloster, Meckl                  VB u Raiffbk               61286           32050957U000000000
130610782Volks- und Raiffeisenbank                                 23923Schönberg, Meckl                   VB u Raiffbk               61286           32046578U000000000
130610782Volks- und Raiffeisenbank                                 23932Grevesmühlen                       VB u Raiffbk               61286           32049751U000000000
130610881Raiffeisenbank Wismar -alt-                               23952Wismar, Meckl                      VB u Raiffbk -alt-         61315GENODEF1HWR32045681U113061078
130611281Raiffeisenbank                                            18202Bad Doberan                        Raiffeisenbank Bad Doberan 61288GENODEF1DBR32045683U000000000
130700001Deutsche Bank                                             18002Rostock                            Deutsche Bank Rostock      27707DEUTDEBRXXX63044862U000000000
130700002Deutsche Bank                                             18201Bad Doberan                        Deutsche Bank Bad Doberan  27707DEUTDEBR13163046172U000000000
130700002Deutsche Bank                                             18241Bützow                             Deutsche Bank Bützow       27707DEUTDEBB13063046174U000000000
130700002Deutsche Bank                                             18401Stralsund                          Deutsche Bank Stralsund    27707DEUTDEBR13863046190U000000000
130700002Deutsche Bank                                             18311Ribnitz-Damgarten                  Deutsche Bank Ribnitz-Damgt27707DEUTDEBR13663046187U000000000
130700002Deutsche Bank                                             18356Barth                              Deutsche Bank Barth        27707DEUTDEBR13263048517U000000000
130700002Deutsche Bank                                             18262Güstrow                            Deutsche Bank Güstrow      27707DEUTDEBB14163046179U000000000
130700002Deutsche Bank                                             18521Bergen auf Rügen                   Deutsche Bank Bergen Rügen 27707DEUTDEBR13363046173U000000000
130700002Deutsche Bank                                             18502Grimmen                            Deutsche Bank Grimmen      27707DEUTDEBR13563046178U000000000
130700002Deutsche Bank                                             18546Sassnitz                           Deutsche Bank Sassnitz     27707DEUTDEBR13763048446U000000000
130700002Deutsche Bank                                             19002Schwerin, Meckl                    Deutsche Bank Schwerin     27707DEUTDEBB14063046189U000000000
130700002Deutsche Bank                                             17462Greifswald, Hansestadt             Deutsche Bank Greifswald   27707DEUTDEBR13463046176U000000000
130700002Deutsche Bank                                             17438Wolgast                            Deutsche Bank Wolgast      27707DEUTDEBB15963046196U000000000
130700002Deutsche Bank                                             17281Prenzlau                           Deutsche Bank Prenzlau     27707DEUTDEBB15463046186U000000000
130700002Deutsche Bank                                             17351Torgelow, Vorpommern               Deutsche Bank Torgelow     27707DEUTDEBB17963046193U000000000
130700002Deutsche Bank                                             17373Ueckermünde                        Deutsche Bank Ueckermünde  27707DEUTDEBB15763048516U000000000
130700002Deutsche Bank                                             17381Anklam                             Deutsche Bank Anklam       27707DEUTDEBB15163046171U000000000
130700002Deutsche Bank                                             19221Hagenow                            Deutsche Bank Hagenow      27707DEUTDEBB14263046180U000000000
130700002Deutsche Bank                                             19205Gadebusch                          Deutsche Bank Gadebusch    27707DEUTDEBB13263048441U000000000
130700002Deutsche Bank                                             19281Ludwigslust, Meckl                 Deutsche Bank Ludwigslust  27707DEUTDEBB14363046181U000000000
130700002Deutsche Bank                                             19348Perleberg                          Deutsche Bank Perleberg    27707DEUTDEBB14663048443U000000000
130700002Deutsche Bank                                             19370Parchim                            Deutsche Bank Parchim      27707DEUTDEBB14563048442U000000000
130700002Deutsche Bank                                             19381Lübz                               Deutsche Bank Lübz         27707DEUTDEBB14463046182U000000000
130700002Deutsche Bank                                             19313Wittenberge, Prignitz              Deutsche Bank Wittenberge  27707DEUTDEBB14963046195U000000000
130700002Deutsche Bank                                             19395Plau                               Deutsche Bank Plau         27707DEUTDEBB14763048444U000000000
130700002Deutsche Bank                                             17161Teterow                            Deutsche Bank Teterow      27707DEUTDEBB15663046192U000000000
130700002Deutsche Bank                                             17153Stavenhagen, Reuterstadt           Deutsche Bk Reuterst Stvnhg27707           63048445U000000000
130700002Deutsche Bank                                             17101Demmin, Hansestadt                 Deutsche Bank Demmin       27707DEUTDEBB13163046175U000000000
130700002Deutsche Bank                                             17132Malchin                            Deutsche Bank Malchin      27707DEUTDEBB15263046183U000000000
130700002Deutsche Bank                                             17192Waren (Müritz)                     Deutsche Bank Waren        27707DEUTDEBB15863048447U000000000
130700002Deutsche Bank                                             17225Neustrelitz                        Deutsche Bank Neustrelitz  27707DEUTDEBB15363046185U000000000
130700002Deutsche Bank                                             17261Templin                            Deutsche Bank Templin      27707DEUTDEBB15563046191U000000000
130700002Deutsche Bank                                             17036Neubrandenburg, Meckl              Deutsche Bank Neubrandenbg 27707DEUTDEBB15063046184U000000000
130700002Deutsche Bank                                             23951Wismar, Meckl                      Deutsche Bank Wismar       27707DEUTDEBB14863046194U000000000
130700002Deutsche Bank                                             23932Grevesmühlen                       Deutsche Bank Grevesmühlen 27707           63046177U000000000
130700242Deutsche Bank Privat und Geschäftskunden                  23932Grevesmühlen                       Deutsche Bank PGK Grevesmüh21707           63049805U000000000
130700242Deutsche Bank Privat und Geschäftskunden                  23951Wismar, Meckl                      Deutsche Bank PGK Wismar   21707DEUTDEDB14863049829U000000000
130700242Deutsche Bank Privat und Geschäftskunden                  17033Neubrandenburg, Meckl              Deutsche Bank PGK Neubrande21707DEUTDEDB15063049812U000000000
130700242Deutsche Bank Privat und Geschäftskunden                  17225Neustrelitz                        Deutsche Bank PGK Neustreli21707DEUTDEDB15363049813U000000000
130700242Deutsche Bank Privat und Geschäftskunden                  17161Teterow                            Deutsche Bank PGK Teterow  21707DEUTDEDB15663049825U000000000
130700242Deutsche Bank Privat und Geschäftskunden                  17192Waren (Müritz)                     Deutsche Bank PGK Waren    21707DEUTDEDB15863049828U000000000
130700242Deutsche Bank Privat und Geschäftskunden                  17101Demmin, Hansestadt                 Deutsche Bank PGK Demmin   21707DEUTDEDB12863049802U000000000
130700242Deutsche Bank Privat und Geschäftskunden                  17153Stavenhagen, Reuterstadt           Deutsche Bank PGK Reutersta21707           63049818U000000000
130700242Deutsche Bank Privat und Geschäftskunden                  17132Malchin                            Deutsche Bank PGK Malchin  21707DEUTDEDB15263049811U000000000
130700242Deutsche Bank Privat und Geschäftskunden                  19395Plau                               Deutsche Bank PGK Plau     21707DEUTDEDB14763049816U000000000
130700242Deutsche Bank Privat und Geschäftskunden                  19221Hagenow                            Deutsche Bank PGK Hagenow  21707DEUTDEDB14263049808U000000000
130700242Deutsche Bank Privat und Geschäftskunden                  19313Wittenberge, Prignitz              Deutsche Bank PGK Wittenber21707DEUTDEDB14963049830U000000000
130700242Deutsche Bank Privat und Geschäftskunden                  19381Lübz                               Deutsche Bank PGK Lübz     21707DEUTDEDB14463049810U000000000
130700242Deutsche Bank Privat und Geschäftskunden                  19370Parchim                            Deutsche Bank PGK Parchim  21707DEUTDEDB14563049814U000000000
130700242Deutsche Bank Privat und Geschäftskunden                  19348Perleberg                          Deutsche Bank PGK Perleberg21707DEUTDEDB14663049815U000000000
130700242Deutsche Bank Privat und Geschäftskunden                  19281Ludwigslust, Meckl                 Deutsche Bank PGK Ludwigslu21707DEUTDEDB14363049809U000000000
130700242Deutsche Bank Privat und Geschäftskunden                  19205Gadebusch                          Deutsche Bank PGK Gadebusch21707DEUTDEDB13263049803U000000000
130700242Deutsche Bank Privat und Geschäftskunden                  17373Ueckermünde                        Deutsche Bank PGK Ueckermün21707DEUTDEDB15763049827U000000000
130700242Deutsche Bank Privat und Geschäftskunden                  17351Torgelow, Vorpommern               Deutsche Bank PGK Torgelow 21707DEUTDEDB17963049826U000000000
130700242Deutsche Bank Privat und Geschäftskunden                  17281Prenzlau                           Deutsche Bank PGK Prenzlau 21707DEUTDEDB15463049817U000000000
130700242Deutsche Bank Privat und Geschäftskunden                  17261Templin                            Deutsche Bank PGK Templin  21707DEUTDEDB15563049824U000000000
130700242Deutsche Bank Privat und Geschäftskunden                  17462Greifswald, Hansestadt             Deutsche Bank PGK Greifswal21707DEUTDEDB13463049804U000000000
130700242Deutsche Bank Privat und Geschäftskunden                  17438Wolgast                            Deutsche Bank PGK Wolgast  21707DEUTDEDB15963049831U000000000
130700242Deutsche Bank Privat und Geschäftskunden                  17381Anklam                             Deutsche Bank PGK Anklam   21707DEUTDEDB15163049797U000000000
130700242Deutsche Bank Privat und Geschäftskunden                  19002Schwerin, Meckl                    Deutsche Bank PGK Schwerin 21707DEUTDEDB14063049822U000000000
130700242Deutsche Bank Privat und Geschäftskunden                  18546Sassnitz                           Deutsche Bank PGK Sassnitz 21707DEUTDEDB13763049821U000000000
130700242Deutsche Bank Privat und Geschäftskunden                  18502Grimmen                            Deutsche Bank PGK Grimmen  21707DEUTDEDB13563049806U000000000
130700242Deutsche Bank Privat und Geschäftskunden                  18521Bergen auf Rügen                   Deutsche Bank PGK Bergen Rü21707DEUTDEDB13363049800U000000000
130700242Deutsche Bank Privat und Geschäftskunden                  18262Güstrow                            Deutsche Bank PGK Güstrow  21707DEUTDEDB14163049807U000000000
130700242Deutsche Bank Privat und Geschäftskunden                  18356Barth                              Deutsche Bank PGK Barth    21707           63049799U000000000
130700242Deutsche Bank Privat und Geschäftskunden                  18311Ribnitz-Damgarten                  Deutsche Bank PGK Ribnitz-D21707DEUTDEDB13663049819U000000000
130700242Deutsche Bank Privat und Geschäftskunden                  18401Stralsund                          Deutsche Bank PGK Stralsund21707DEUTDEDB13863049823U000000000
130700242Deutsche Bank Privat und Geschäftskunden                  18241Bützow                             Deutsche Bank PGK Bützow   21707DEUTDEDB13063049801U000000000
130700242Deutsche Bank Privat und Geschäftskunden                  18201Bad Doberan                        Deutsche Bank PGK Bad Dober21707DEUTDEDB13163049798U000000000
130700241Deutsche Bank Privat und Geschäftskunden                  18002Rostock                            Deutsche Bank PGK Rostock  21707DEUTDEDBROS63049820U000000000
130800001Dresdner Bank                                             18010Rostock                            Dresdner Bank Rostock      28130DRESDEFF13076044863U000000000
130800002Dresdner Bank                                             18262Güstrow                            Dresdner Bank Güstrow      28130DRESDEFF13176046694D000000000
130900001Rostocker Volks- und Raiffeisenbank                       18003Rostock                            Rostocker VR Bank          91063GENODEF1HR132050596U000000000
130910541Pommersche Volksbank                                      18401Stralsund                          Pommersche Volksbank       91054GENODEF1HST32045009U000000000
130910841Volksbank Wismar -alt-                                    23952Wismar, Meckl                      VB u Raiffbk -alt-              GENODEF1HWV06045015U113061078
140000001Bundesbank                                                19005Schwerin, Meckl                    BBk Schwerin               20140MARKDEF114009044867U000000000
140207001Hanseatic Bank                                            19055Schwerin, Meckl                    Hanseatic Bank Schwerin         HSTBDEH1SCH16048808U000000000
140207811Bayer Hypo- und Vereinsbank(ehem. Hypo)                   19003Schwerin, Meckl                    HypoverBk-Hypo-Schwerin         HYVEDEM119499045916U100000000
140400001Commerzbank                                               19055Schwerin, Meckl                    Commerzbank Schwerin       24140COBADEFF14013046008U000000000
140510001Sparkasse Mecklenburg-Nordwest                            23951Wismar, Meckl                      Spk Mecklenburg-Nordwest   51499NOLADE21WIS20048818U000000000
140510002Sparkasse Mecklenburg-Nordwest                            19209Lützow                             Spk Mecklenburg-Nordwest   51499           20048834U000000000
140510002Sparkasse Mecklenburg-Nordwest                            19205Gadebusch                          Spk Mecklenburg-Nordwest   51499           20048828U000000000
140510002Sparkasse Mecklenburg-Nordwest                            19217Rehna                              Spk Mecklenburg-Nordwest   51499           20048244U000000000
140510002Sparkasse Mecklenburg-Nordwest                            23923Herrnburg                          Spk Mecklenburg-Nordwest   51499           20048831U000000000
140510002Sparkasse Mecklenburg-Nordwest                            23946Ostseebad Boltenhagen              Spk Mecklenburg-Nordwest   51499           20048825U000000000
140510002Sparkasse Mecklenburg-Nordwest                            23948Klütz                              Spk Mecklenburg-Nordwest   51499           20048833U000000000
140510002Sparkasse Mecklenburg-Nordwest                            23996Bad Kleinen                        Spk Mecklenburg-Nordwest   51499           20048824U000000000
140510002Sparkasse Mecklenburg-Nordwest                            23999Insel Poel                         Spk Mecklenburg-Nordwest   51499           20048832U000000000
140510002Sparkasse Mecklenburg-Nordwest                            23992Neukloster, Meckl                  Spk Mecklenburg-Nordwest   51499           20048835U000000000
140510002Sparkasse Mecklenburg-Nordwest                            23972Dorf Mecklenburg                   Spk Mecklenburg-Nordwest   51499           20048827U000000000
140510002Sparkasse Mecklenburg-Nordwest                            23923Schönberg, Meckl                   Spk Mecklenburg-Nordwest   51499           20048836U000000000
140510002Sparkasse Mecklenburg-Nordwest                            23923Selmsdorf                          Spk Mecklenburg-Nordwest   51499           20048837U000000000
140510002Sparkasse Mecklenburg-Nordwest                            23936Grevesmühlen                       Spk Mecklenburg-Nordwest   51499           20048829U000000000
140510002Sparkasse Mecklenburg-Nordwest                            23936Testorf-Steinfort                  Spk Mecklenburg-Nordwest   51499           20048838U000000000
140510002Sparkasse Mecklenburg-Nordwest                            23942Dassow                             Spk Mecklenburg-Nordwest   51499           20048826U000000000
140510002Sparkasse Mecklenburg-Nordwest                            23942Harkensee                          Spk Mecklenburg-Nordwest   51499           20048830U000000000
140513622Sparkasse Parchim-Lübz                                    19386Lübz                               Sparkasse Parchim-Lübz     51404           20045252U000000000
140513621Sparkasse Parchim-Lübz                                    19362Parchim                            Sparkasse Parchim-Lübz     51404NOLADE21PCH20045251U000000000
140514621Sparkasse Schwerin -alt-                                  19053Schwerin, Meckl                    Sparkasse Schwerin -alt-   51409NOLADE21SNSC0045246U000000000
140520001Sparkasse Mecklenburg-Schwerin                            19053Schwerin, Meckl                    Spk Mecklenburg-Schwerin   51498NOLADE21LWL20048910U000000000
140520002Sparkasse Mecklenburg-Schwerin                            19221Hagenow                            Spk Mecklenburg-Schwerin   51498           20053387U000000000
140520002Sparkasse Mecklenburg-Schwerin                            19075Pampow b Schwerin, Meckl           Spk Mecklenburg-Schwerin   51498           20049734U000000000
140520002Sparkasse Mecklenburg-Schwerin                            19282Ludwigslust, Meckl                 Spk Mecklenburg-Schwerin   51498           20048911U000000000
140520002Sparkasse Mecklenburg-Schwerin                            19260Vellahn                            Spk Mecklenburg-Schwerin   51498           20048256U000000000
140520002Sparkasse Mecklenburg-Schwerin                            19241Wittenburg, Meckl                  Spk Mecklenburg-Schwerin   51498           20048257U000000000
140520002Sparkasse Mecklenburg-Schwerin                            19246Zarrentin, Meckl                   Spk Mecklenburg-Schwerin   51498           20048258U000000000
140520002Sparkasse Mecklenburg-Schwerin                            19249Lübtheen                           Spk Mecklenburg-Schwerin   51498           20048253U000000000
140520002Sparkasse Mecklenburg-Schwerin                            19251Boizenburg                         Spk Mecklenburg-Schwerin   51498           20048252U000000000
140520002Sparkasse Mecklenburg-Schwerin                            19304Neustadt-Glewe                     Spk Mecklenburg-Schwerin   51498           20048313U000000000
140520002Sparkasse Mecklenburg-Schwerin                            19294Eldena a d Elde                    Spk Mecklenburg-Schwerin   51498           20048315U000000000
140520002Sparkasse Mecklenburg-Schwerin                            19294Malliß                             Spk Mecklenburg-Schwerin   51498           20048314U000000000
140520002Sparkasse Mecklenburg-Schwerin                            19294Neu Kaliß                          Spk Mecklenburg-Schwerin   51498           20048312U000000000
140520002Sparkasse Mecklenburg-Schwerin                            19300Grabow, Meckl                      Spk Mecklenburg-Schwerin   51498           20048311U000000000
140520002Sparkasse Mecklenburg-Schwerin                            19288Wöbbelin                           Spk Mecklenburg-Schwerin   51498           20049733U000000000
140520002Sparkasse Mecklenburg-Schwerin                            19303Dömitz                             Spk Mecklenburg-Schwerin   51498           20048310U000000000
140613082Volks- und Raiffeisenbank                                 19381Lübz                               VB u Raiffbk Lübz          61289           32045697U000000000
140613082Volks- und Raiffeisenbank                                 19395Ganzlin                            VB u Raiffbk Ganzlin       61289           32050627U000000000
140613082Volks- und Raiffeisenbank                                 19395Plau                               VB u Raiffbk Plau          61289           32050633U000000000
140613082Volks- und Raiffeisenbank                                 19399Goldberg, Meckl                    VB u Raiffbk Goldberg      61289           32050628U000000000
140613082Volks- und Raiffeisenbank                                 19399Dobbertin                          VB u Raiffbk Dobbertin     61289           32050626U000000000
140613082Volks- und Raiffeisenbank                                 19406Sternberg, Meckl                   VB u Raiffbk Sternberg     61289           32051327U000000000
140613082Volks- und Raiffeisenbank                                 19406Dabel                              VB u Raiffbk Dabel         61289           32051326U000000000
140613082Volks- und Raiffeisenbank                                 19412Brüel                              VB u Raiffbk Brüel         61289           32051325U000000000
140613082Volks- und Raiffeisenbank                                 19417Ventschow                          VB u Raiffbk Ventschow     61289           32051329U000000000
140613082Volks- und Raiffeisenbank                                 19417Warin                              VB u Raiffbk Warin         61289           32051328U000000000
140613082Volks- und Raiffeisenbank                                 18279Lalendorf                          VB u Raiffbk Lalendorf     61289           32050631U000000000
140613082Volks- und Raiffeisenbank                                 18292Krakow a See                       VB u Raiffbk Krakow am See 61289           32050629U000000000
140613082Volks- und Raiffeisenbank                                 18299Laage                              VB u Raiffbk Laage         61289           32050630U000000000
140613082Volks- und Raiffeisenbank                                 18246Bützow                             VB u Raiffbk Bützow        61289           32050625U000000000
140613082Volks- und Raiffeisenbank                                 18258Schwaan                            VB u Raiffbk Schwaan       61289           32050632U000000000
140613081Volks- und Raiffeisenbank                                 18262Güstrow                            VB u Raiffbk Güstrow       61289GENODEF1GUE32045694U000000000
140613381Raiffeisenbank Sternberg -alt-                            19406Sternberg, Meckl                   Raiffbk Sternberg -alt-    61246GENODEF1STB09045696D014061308
140614381Raiffeisen-Volksbank -alt-                                19205Gadebusch                          Raiffeisen-VB Gadebusch-alt61311GENODEF1GDB32045702U000000000
140800001Dresdner Bank                                             19006Schwerin, Meckl                    Dresdner Bank Schwerin     28140DRESDEFF14076044866U000000000
140800002Dresdner Bank                                             19361Parchim                            Dresdner Bank Parchim      28140DRESDEFF15176046293U000000000
140800002Dresdner Bank                                             23966Wismar, Meckl                      Dresdner Bank Wismar       28140DRESDEFF14176044873U000000000
140800111Dresdner Bank Zw W                                        19006Schwerin, Meckl                    Dresdner Bank Schwerin Zw W     DRESDEFFI2776046780U000000000
140914641VR-Bank                                                   19053Schwerin, Meckl                    VR-Bank Schwerin           91044GENODEF1SN132044999U000000000
140914642VR-Bank Schwerin                                          19370Parchim                            VR-Bank Schwerin           91044           32046280U000000000
140914642VR-Bank                                                   19281Ludwigslust, Meckl                 VR-Bank Schwerin           91044           32046031U000000000
150000001Bundesbank                                                17020Neubrandenburg, Meckl              BBk Neubrandenburg         20150MARKDEF115009044851U000000000
150400681Commerzbank                                               17019Neubrandenburg, Meckl              Commerzbank Neubrandenburg 24151COBADEFF15113045999U000000000
150400682Commerzbank                                               18528Bergen auf Rügen                   Commerzbank Bergen Rügen   24151COBADEFF15313047233U000000000
150400682Commerzbank                                               18401Stralsund                          Commerzbank Stralsund      24151COBADEFF15213046011U000000000
150400682Commerzbank                                               17461Greifswald, Hansestadt             Commerzbank Greifswald     24151COBADEFF15013045989U000000000
150501002Müritz-Sparkasse Fil                                      17207Röbel /Müritz                      Müritz-Sparkasse Röbel     51514           20045256U000000000
150501001Müritz-Sparkasse                                          17181Waren (Müritz)                     Müritz-Sparkasse Waren     51514NOLADE21WRN20045257U000000000
150502001Sparkasse Neubrandenburg-Demmin                           17041Neubrandenburg, Meckl              Spk Neubrandenburg-Demmin  51515NOLADE21NBS20047492U000000000
150502002Sparkasse Neubrandenburg-Demmin                           17132Malchin                            Spk Neubrandenburg-Demmin  51515           20052199U000000000
150502002Sparkasse Neubrandenburg-Demmin                           17153Stavenhagen, Reuterstadt           Spk Neubrandenburg-Demmin  51515           20052195U000000000
150502002Sparkasse Neubrandenburg-Demmin                           17154Neukalen                           Spk Neubrandenburg-Demmin  51515           20052196U000000000
150502002Sparkasse Neubrandenburg-Demmin                           17159Dargun                             Spk Neubrandenburg-Demmin  51515           20052198U000000000
150502002Sparkasse Neubrandenburg-Demmin                           17102Demmin, Hansestadt                 Spk Neubrandenburg-Demmin  51515           20052202U000000000
150502002Sparkasse Neubrandenburg-Demmin                           17121Loitz b Demmin                     Spk Neubrandenburg-Demmin  51515           20052200U000000000
150502002Sparkasse Neubrandenburg-Demmin                           17126Jarmen                             Spk Neubrandenburg-Demmin  51515           20052201U000000000
150502002Sparkasse Neubrandenburg-Demmin                           17139Gielow                             Spk Neubrandenburg-Demmin  51515           20052197U000000000
150502002Sparkasse Neubrandenburg-Demmin                           17087Altentreptow                       Spk Neubrandenburg-Demmin  51515           20052203U000000000
150503001Kreissparkasse Demmin -alt-                               17102Demmin, Hansestadt                 Kr Spk Demmin -alt-        51599NOLADE21DEM20048802U000000000
150504001Sparkasse Uecker-Randow                                   17302Pasewalk                           Sparkasse Uecker-Randow    51598NOLADE21PSW20049128U000000000
150504002Sparkasse Uecker-Randow Gs                                17309Jatznick                           Spk Uecker-Randow Jatznick 51598           20049130U000000000
150504002Sparkasse Uecker-Randow Gs                                17321Löcknitz, Vorpommern               Spk Uecker-Randow Löcknitz 51598           20049131U000000000
150504002Sparkasse Uecker-Randow Gs                                17328Penkun                             Spk Uecker-Randow Penkun   51598           20049132U000000000
150504002Sparkasse Uecker-Randow Gs                                17358Torgelow, Vorpommern               Spk Uecker-Randow Torgelow 51598           20046596U000000000
150504002Sparkasse Uecker-Randow                                   17335Strasburg (Uckermark)              Sparkasse Uecker-Randow    51598           20045261U000000000
150504002Sparkasse Uecker-Randow Gs                                17367Eggesin                            Spk Uecker-Randow Eggesin  51598           20046597U000000000
150504002Sparkasse Uecker-Randow Gs                                17373Ueckermünde                        Spk Uecker-Randow Ueckermde51598           20049133U000000000
150504002Sparkasse Uecker-Randow Gs                                17379Ferdinandshof, Vorpommern          Spk Uecker-Rand Ferdinandsh51598           20046598U000000000
150505002Sparkasse Vorpommern                                      17431Wolgast                            Spk Vorpommern             51597           20045245U000000000
150505002Sparkasse Vorpommern                                      17382Anklam                             Spk Vorpommern             51597           20045259U000000000
150505002Sparkasse Vorpommern                                      18303Ribnitz-Damgarten                  Spk Vorpommern             51597           20045238U000000000
150505002Sparkasse Vorpommern                                      18507Grimmen                            Spk Vorpommern             51597           20045243U000000000
150505001Sparkasse Vorpommern                                      17462Greifswald, Hansestadt             Spk Vorpommern             51597NOLADE21GRW20050482U000000000
150517321Sparkasse Mecklenburg-Strelitz                            17235Neustrelitz                        Spk Mecklenburg-Strelitz   51512NOLADE21MSTC0045268M000000000
150517322Sparkasse Mecklenburg-Strelitz                            17348Woldegk                            Spk Meckl-Strelitz Woldegk 51512           52048683U000000000
150517322Sparkasse Mecklenburg-Strelitz                            17094Burg Stargard                      Spk Meckl-Strelitz Burg Sta51512           52048682U000000000
150517322Sparkasse Mecklenburg-Strelitz                            17098Friedland b Neubrandenburg         Spk Meckl-Strelitz Friedl  51512           52048681U000000000
150517322Sparkasse Mecklenburg-Strelitz Gs                         17252Mirow, Meckl                       Spk Meckl-Strelitz Mirow   51512           52046607U000000000
150517322Sparkasse Mecklenburg-Strelitz Gs                         17255Wesenberg, Meckl                   Spk Meckl-Strelitz Wesenbg 51512           52046605U000000000
150517322Sparkasse Mecklenburg-Strelitz Gs                         17258Feldberger Seenlandschaft          Spk Meckl-Strelitz Feldberg51512           52046608U000000000
150616182Raiffeisenbank Mecklenburger Seenplatte                   17255Wesenberg, Meckl                   Raiffbk Mecklenb Seenplatte61261           32046661U000000000
150616182Raiffeisenbank Mecklenburger Seenplatte                   17258Feldberger Seenlandschaft          Raiffbk Mecklenb Seenplatte61261           32046658U000000000
150616182Raiffeisenbank Mecklenburger Seenplatte                   17252Mirow, Meckl                       Raiffbk Mecklenb Seenplatte61261           32046660U000000000
150616182Raiffeisenbank Mecklenburger Seenplatte                   17237Blankensee b Neustrelitz           Raiffbk Mecklenb Seenplatte61261           32046659U000000000
150616182Raiffeisenbank Mecklenburger Seenplatte                   17213Malchow, Meckl                     Raiffbk Mecklenb Seenplatte61261           32046641U000000000
150616182Raiffeisenbank Mecklenburger Seenplatte                   17213Fünfseen                           Raiffbk Mecklenb Seenplatte61261           32049325U000000000
150616182Raiffeisenbank Mecklenburger Seenplatte                   17217Penzlin b Waren                    Raiffbk Mecklenb Seenplatte61261           32046642U000000000
150616182Raiffeisenbank Mecklenburger Seenplatte                   17219Möllenhagen                        Raiffbk Mecklenb Seenplatte61261           32046640U000000000
150616182Raiffeisenbank Mecklenburger Seenplatte                   17194Vollrathsruhe                      Raiffbk Mecklenb Seenplatte61261           32046638U000000000
150616182Raiffeisenbank Mecklenburger Seenplatte                   17203Röbel /Müritz                      Raiffbk Mecklenb Seenplatte61261           32045934U000000000
150616181Raiffeisenbank Mecklenburger Seenplatte                   17182Waren (Müritz)                     Raiffbk Mecklenb Seenplatte61261GENODEF1WRN32045935U000000000
150616182Raiffeisenbank Mecklenburger Seenplatte                   17033Neubrandenburg, Meckl              Raiffbk Mecklenb Seenplatte61261           32053249U000000000
150616182Raiffeisenbank Mecklenburger Seenplatte                   17235Neustrelitz                        Raiffbk Mecklenb Seenplatte61261           32053250U000000000
150616182Raiffeisenbank Mecklenburger Seenplatte                   17098Friedland b Neubrandenburg         Raiffbk Mecklenb Seenplatte61261           32053251U000000000
150616182Raiffeisenbank Mecklenburger Seenplatte                   17094Burg Stargard                      Raiffbk Mecklenb Seenplatte61261           32053252U000000000
150616381Volksbank Raiffeisenbank                                  17462Greifswald, Hansestadt             Volksbank Raiffeisenbank   61265GENODEF1ANK32050708U000000000
150616382Volksbank Raiffeisenbank                                  17087Altentreptow                       Volksbank Raiffeisenbank   61265           32045945U000000000
150616382Volksbank Raiffeisenbank                                  17367Eggesin                            Volksbank Raiffeisenbank   61265           32046647U000000000
150616382Volksbank Raiffeisenbank                                  17358Torgelow, Vorpommern               Volksbank Raiffeisenbank   61265           32046630U000000000
150616382Volksbank Raiffeisenbank                                  17379Ferdinandshof, Vorpommern          Volksbank Raiffeisenbank   61265           32046646U000000000
150616382Volksbank Raiffeisenbank                                  17373Ueckermünde                        Volksbank Raiffeisenbank   61265           32045936U000000000
150616382Volksbank Raiffeisenbank                                  17389Anklam                             Volksbank Raiffeisenbank   61265           32045937U000000000
150616382Volksbank Raiffeisenbank                                  17391Krien                              Volksbank Raiffeisenbank   61265           32046613U000000000
150616382Volksbank Raiffeisenbank                                  17392Spantekow                          Volksbank Raiffeisenbank   61265           32046612U000000000
150616382Volksbank Raiffeisenbank                                  17398Ducherow                           Volksbank Raiffeisenbank   61265           32046611U000000000
150616582Raiffeisenbank Pasewalk-Strasburg                         17349Groß Miltzow b Oertzenhof, Meckl   Raiffbk Pasewalk-Strasburg 61300           32046650U000000000
150616582Raiffeisenbank Pasewalk-Strasburg                         17348Woldegk                            Raiffbk Pasewalk-Strasburg 61300           32046652U000000000
150616582Raiffeisenbank Pasewalk-Strasburg                         17302Pasewalk                           Raiffbk Pasewalk-Strasburg 61300           32045938U000000000
150616582Raiffeisenbank Pasewalk-Strasburg                         17328Penkun                             Raiffbk Pasewalk-Strasburg 61300           32046631U000000000
150616582Raiffeisenbank Pasewalk-Strasburg                         17309Jatznick                           Raiffbk Pasewalk-Strasburg 61300           32046648U000000000
150616582Raiffeisenbank Pasewalk-Strasburg                         17321Löcknitz, Vorpommern               Raiffbk Pasewalk-Strasburg 61300           32046651U000000000
150616582Raiffeisenbank Pasewalk-Strasburg                         17153Bredenfelde b Malchin              Raiffbk Pasewalk-Strasburg 61300           32046649U000000000
150616581Raiffeisenbank Pasewalk-Strasburg                         17335Strasburg (Uckermark)              Raiffbk Pasewalk-Strasburg 61300GENODEF1STG32045939U000000000
150616981Raiffeisenbank Malchin                                    17131Malchin                            Raiffeisenbank Malchin     61247GENODEF1MAL32045943U000000000
150616982Raiffeisenbank Malchin                                    17153Stavenhagen, Reuterstadt           Raiffbk Malchin Stavenhagen61247           32046619U000000000
150616982Raiffeisenbank Malchin                                    17159Dargun                             Raiffbk Malchin Dargun     61247           32046615U000000000
150616982Raiffeisenbank Malchin                                    17154Neukalen                           Raiffbk Malchin Neukalen   61247           32046616U000000000
150616982Raiffeisenbank Malchin                                    17161Teterow                            Raiffeisenbank Malchin     61247           32045942U000000000
150616982Raiffeisenbank Malchin                                    17139Faulenrost                         Raiffbk Malchin Faulenrost 61247           32046617U000000000
150616982Raiffeisenbank Malchin                                    17139Gielow                             Raiffbk Malchin Gielow     61247           32046618U000000000
150617381Raiffeisenbank                                            17222Neustrelitz                        Raiffeisenbank Neustrelitz 61256GENODEF1NZ111045946U000000000
150617581Neubrandenburger Bank -alt-                               17033Neubrandenburg, Meckl              Neubrandenburger Bank -alt-61302GENODEF1NB106045947U000000000
150800001Dresdner Bank                                             17033Neubrandenburg, Meckl              Dresdner Bank Neubrandenbg 28150DRESDEFF15076046451U000000000
150800002Dresdner Bank                                             17463Greifswald, Hansestadt             Dresdner Bank Greifswald   28150DRESDEFF10676046695U000000000
150800002Dresdner Bank                                             17302Pasewalk                           Dresdner Bank Pasewalk     28150DRESDEFF15276047866U000000000
150800002Dresdner Bank                                             18439Stralsund                          Dresdner Bank Stralsund    28150DRESDEFF15376046698U000000000
150800002Dresdner Bank                                             18528Bergen auf Rügen                   Dresdner Bank Bergen Rügen 28150DRESDEFF11276047867D000000000
150800002Dresdner Bank                                             17181Waren (Müritz)                     Dresdner Bank Waren        28150DRESDEFF14976047865U000000000
150800002Dresdner Bank                                             17223Neustrelitz                        Dresdner Bank Neustrelitz  28150DRESDEFF15476046696D000000000
150916742Volksbank Demmin Nst Anklam                               17381Anklam                             Volksbank Demmin Anklam    91048           06044906U000000000
150916741Volksbank Demmin                                          17101Demmin, Hansestadt                 Volksbank Demmin           91048GENODEF1DM106044904U000000000
150917041Volksbank Uckermark                                       17281Prenzlau                           VB Uckermark Prenzlau      91045GENODEF1PZ106044986U000000000
150917042Volksbank Uckermark Prenzlau                              17309Pasewalk                           VB Uckermark Prenzlau      91045           06044987U000000000
150917042Volksbank Uckermark Prenzlau                              17279Lychen                             VB Uckermark Prenzlau      91045           06046653U000000000
150917042Volksbank Uckermark Prenzlau                              17261Templin                            VB Uckermark Prenzlau      91045           06044988U000000000
150917042Volksbank Uckermark                                       16278Angermünde                         VB Uckermark Angermünde    91045           06050575U000000000
160000001Bundesbank                                                14409Potsdam                            BBk Potsdam                20160MARKDEF116009044858U000000000
160101111SEB                                                       14467Potsdam                            SEB Potsdam                25927ESSEDE5F16013046480U000000000
160101112SEB                                                       03046Cottbus                            SEB Cottbus                25927ESSEDE5116113050675U000000000
160103001Investitionsbank des Landes Brandenburg                   14438Potsdam                            Investitionsbk Potsdam          ILBXDE81XXX08051394U000000000
160200861Bayer Hypo- und Vereinsbank                               14467Potsdam                            HypoVereinsbank Potsdam    22102HYVEDEMM47099045914U000000000
160400001Commerzbank                                               14402Potsdam                            Commerzbank Potsdam        24160COBADEFF16013045968U000000000
160400002Commerzbank                                               14513Teltow                             Commerzbank Teltow         24160COBADEFF15813048178U000000000
160400002Commerzbank                                               14612Falkensee                          Commerzbank Falkensee      24160           13048684U000000000
160400002Commerzbank                                               14701Rathenow                           Commerzbank Rathenow       24160COBADEFF15913049335U000000000
160400002Commerzbank                                               14732Brandenburg an der Havel           Commerzbank Brandenburg    24160COBADEFF16113045974U000000000
160400002Commerzbank                                               16515Oranienburg                        Commerzbank Oranienburg    24160COBADEFF16513047236U000000000
160400002Commerzbank                                               14943Luckenwalde                        Commerzbank Luckenwalde    24160COBADEFF16713047234U000000000
160400002Commerzbank                                               14974Ludwigsfelde                       Commerzbank Ludwigsfelde   24160COBADEFF16213047054U000000000
160400002Commerzbank                                               15537Erkner                             Commerzbank Erkner         24160COBADEFF16813046559U000000000
160400002Commerzbank                                               17235Neustrelitz                        Commerzbank Neustrelitz    24160COBADEFF16413047235U000000000
160400002Commerzbank                                               16761Hennigsdorf                        Commerzbank Hennigsdorf    24160COBADEFF16913048268U000000000
160400002Commerzbank                                               16801Neuruppin                          Commerzbank Neuruppin      24160COBADEFF16313046560U000000000
160400002Commerzbank                                               19322Wittenberge, Prignitz              Commerzbank Wittenberge    24160COBADEFF16613046561U000000000
160500002Mittelbrandenburgische Sparkasse in Potsdam               16798Fürstenberg /Havel                 Mittelbrandenbg Sparkasse  51699           20049084U000000000
160500002Mittelbrandenburgische Sparkasse in Potsdam               16761Hennigsdorf                        Mittelbrandenbg Sparkasse  51699           20047958U000000000
160500002Mittelbrandenburgische Sparkasse in Potsdam               16775Gransee                            Mittelbrandenbg Sparkasse  51699           20049085U000000000
160500002Mittelbrandenburgische Sparkasse in Potsdam               16775Löwenberger Land                   Mittelbrandenbg Sparkasse  51699           20049086U000000000
160500002Mittelbrandenburgische Sparkasse in Potsdam               16766Kremmen                            Mittelbrandenbg Sparkasse  51699           20047972U000000000
160500002Mittelbrandenburgische Sparkasse in Potsdam               16767Leegebruch                         Mittelbrandenbg Sparkasse  51699           20047973U000000000
160500002Mittelbrandenburgische Sparkasse in Potsdam               16792Zehdenick                          Mittelbrandenbg Sparkasse  51699           20049093U000000000
160500002Mittelbrandenburgische Sparkasse                          15738Zeuthen                            Mittelbrandenbg Sparkasse  51699           20053007U000000000
160500002Mittelbrandenburgische Sparkasse                          15741Bestensee                          Mittelbrandenbg Sparkasse  51699           20053008U000000000
160500002Mittelbrandenburgische Sparkasse                          15745Wildau b Königs Wusterhausen       Mittelbrandenbg Sparkasse  51699           20053009U000000000
160500002Mittelbrandenburgische Sparkasse                          15711Königs Wusterhausen                Mittelbrandenbg Sparkasse  51699           20053004U000000000
160500002Mittelbrandenburgische Sparkasse                          15806Zossen b Berlin                    Mittelbrandenbg Sparkasse  51699           20052995U000000000
160500002Mittelbrandenburgische Sparkasse                          15827Blankenfelde b Zossen b Berlin     Mittelbrandenbg Sparkasse  51699           20052997U000000000
160500002Mittelbrandenburgische Sparkasse                          15831Mahlow                             Mittelbrandenbg Sparkasse  51699           20052998U000000000
160500002Mittelbrandenburgische Sparkasse                          15834Rangsdorf                          Mittelbrandenbg Sparkasse  51699           20052999U000000000
160500002Mittelbrandenburgische Sparkasse                          15837Baruth / Mark                      Mittelbrandenbg Sparkasse  51699           20053000U000000000
160500002Mittelbrandenburgische Sparkasse                          15838Am Mellensee                       Mittelbrandenbg Sparkasse  51699           20053002U000000000
160500002Mittelbrandenburgische Sparkasse                          15754Senzig                             Mittelbrandenbg Sparkasse  51699           20053015U000000000
160500002Mittelbrandenburgische Sparkasse                          15755Teupitz                            Mittelbrandenbg Sparkasse  51699           20053016U000000000
160500002Mittelbrandenburgische Sparkasse                          15732Schulzendorf b Eichwalde           Mittelbrandenbg Sparkasse  51699           20053005U000000000
160500002Mittelbrandenburgische Sparkasse                          15732Eichwalde                          Mittelbrandenbg Sparkasse  51699           20053006U000000000
160500002Mittelbrandenburgische Sparkasse                          15746Groß Köris                         Mittelbrandenbg Sparkasse  51699           20053010U000000000
160500002Mittelbrandenburgische Sparkasse                          15748Märkisch Buchholz                  Mittelbrandenbg Sparkasse  51699           20053011U000000000
160500002Mittelbrandenburgische Sparkasse                          15749Mittenwalde, Mark                  Mittelbrandenbg Sparkasse  51699           20053012U000000000
160500002Mittelbrandenburgische Sparkasse                          15751Niederlehme                        Mittelbrandenbg Sparkasse  51699           20053013U000000000
160500002Mittelbrandenburgische Sparkasse                          15754Heidesee                           Mittelbrandenbg Sparkasse  51699           20053014U000000000
160500002Mittelbrandenburgische Sparkasse                          14974Ludwigsfelde                       Mittelbrandenbg Sparkasse  51699           20052993U000000000
160500002Mittelbrandenburgische Sparkasse                          14947Nuthe-Urstromtal                   Mittelbrandenbg Sparkasse  51699           20052991U000000000
160500002Mittelbrandenburgische Sparkasse                          14959Trebbin                            Mittelbrandenbg Sparkasse  51699           20052992U000000000
160500002Mittelbrandenburgische Sparkasse                          14979Großbeeren                         Mittelbrandenbg Sparkasse  51699           20052994U000000000
160500002Mittelbrandenburgische Sparkasse in Potsdam               16515Oranienburg                        Mittelbrandenbg Sparkasse  51699           20047980U000000000
160500002Mittelbrandenburgische Sparkasse in Potsdam               16540Hohen Neuendorf                    Mittelbrandenbg Sparkasse  51699           20047969U000000000
160500002Mittelbrandenburgische Sparkasse in Potsdam               16547Birkenwerder                       Mittelbrandenbg Sparkasse  51699           20047954U000000000
160500002Mittelbrandenburgische Sparkasse in Potsdam               16548Glienicke /Nordbahn                Mittelbrandenbg Sparkasse  51699           20047965U000000000
160500002Mittelbrandenburgische Sparkasse in Potsdam               16559Liebenwalde                        Mittelbrandenbg Sparkasse  51699           20047975U000000000
160500002Mittelbrandenburgische Sparkasse in Potsdam               16727Velten                             Mittelbrandenbg Sparkasse  51699           20047985U000000000
160500002Mittelbrandenburgische Sparkasse in Potsdam               16727Oberkrämer                         Mittelbrandenbg Sparkasse  51699           20047953U000000000
160500002Mittelbrandenburgische Sparkasse in Potsdam               16567Mühlenbeck b Oranienburg           Mittelbrandenbg Sparkasse  51699           20047977U000000000
160500002Mittelbrandenburgische Sparkasse                          15907Lübben (Spreewald)                 Mittelbrandenbg Sparkasse  51699           20053019U000000000
160500002Mittelbrandenburgische Sparkasse                          15936Dahme, Mark                        Mittelbrandenbg Sparkasse  51699           20053003U000000000
160500002Mittelbrandenburgische Sparkasse                          15938Golßen                             Mittelbrandenbg Sparkasse  51699           20053024U000000000
160500002Mittelbrandenburgische Sparkasse                          15868Lieberose                          Mittelbrandenbg Sparkasse  51699           20053018U000000000
160500002Mittelbrandenburgische Sparkasse                          15758Zernsdorf                          Mittelbrandenbg Sparkasse  51699           20053017U000000000
160500002Mittelbrandenburgische Sparkasse                          15910Schönwald b Lübben                 Mittelbrandenbg Sparkasse  51699           20053020U000000000
160500002Mittelbrandenburgische Sparkasse                          15913Märkische Heide                    Mittelbrandenbg Sparkasse  51699           20053022U000000000
160500002Mittelbrandenburgische Sparkasse                          15913Straupitz                          Mittelbrandenbg Sparkasse  51699           20053021U000000000
160500002Mittelbrandenburgische Sparkasse                          15926Luckau, NL                         Mittelbrandenbg Sparkasse  51699           20053023U000000000
160500002Mittelbrandenburgische Sparkasse in Potsdam               14727Premnitz                           Mittelbrandenbg Sparkasse  51699           20049089U000000000
160500002Mittelbrandenburgische Sparkasse in Potsdam               14728Rhinow                             Mittelbrandenbg Sparkasse  51699           20049091U000000000
160500002Mittelbrandenburgische Sparkasse in Potsdam               14715Milower Land                       Mittelbrandenbg Sparkasse  51699           20049087U000000000
160500002Mittelbrandenburgische Sparkasse in Potsdam               14715Nennhausen                         Mittelbrandenbg Sparkasse  51699           20049088U000000000
160500002Mittelbrandenburgische Sparkasse in Potsdam               14712Rathenow                           Mittelbrandenbg Sparkasse  51699           20049090U000000000
